{
  "contractName": "VendingMachine",
  "abi": [
    {
      "inputs": [],
      "stateMutability": "nonpayable",
      "type": "constructor"
    },
    {
      "inputs": [
        {
          "internalType": "address",
          "name": "",
          "type": "address"
        }
      ],
      "name": "donutBalances",
      "outputs": [
        {
          "internalType": "uint256",
          "name": "",
          "type": "uint256"
        }
      ],
      "stateMutability": "view",
      "type": "function"
    },
    {
      "inputs": [],
      "name": "owner",
      "outputs": [
        {
          "internalType": "address",
          "name": "",
          "type": "address"
        }
      ],
      "stateMutability": "view",
      "type": "function"
    },
    {
      "inputs": [],
      "name": "getVendingMachineBalance",
      "outputs": [
        {
          "internalType": "uint256",
          "name": "",
          "type": "uint256"
        }
      ],
      "stateMutability": "view",
      "type": "function"
    },
    {
      "inputs": [
        {
          "internalType": "address",
          "name": "account",
          "type": "address"
        }
      ],
      "name": "getDountsByAccount",
      "outputs": [
        {
          "internalType": "uint256",
          "name": "",
          "type": "uint256"
        }
      ],
      "stateMutability": "view",
      "type": "function"
    },
    {
      "inputs": [
        {
          "internalType": "uint256",
          "name": "amount",
          "type": "uint256"
        }
      ],
      "name": "restock",
      "outputs": [],
      "stateMutability": "nonpayable",
      "type": "function"
    },
    {
      "inputs": [
        {
          "internalType": "uint256",
          "name": "amount",
          "type": "uint256"
        }
      ],
      "name": "purchase",
      "outputs": [],
      "stateMutability": "payable",
      "type": "function"
    }
  ],
  "bytecode": "0x608060405234801561001057600080fd5b50336000806101000a81548173ffffffffffffffffffffffffffffffffffffffff021916908373ffffffffffffffffffffffffffffffffffffffff1602179055506064600160003073ffffffffffffffffffffffffffffffffffffffff1673ffffffffffffffffffffffffffffffffffffffff168152602001908152602001600020819055506108da806100a56000396000f3fe6080604052600436106100555760003560e01c80638da5cb5b1461005a5780639a020d8a14610085578063c21a702a146100c2578063e46282b2146100eb578063e7644d3414610128578063efef39a114610153575b600080fd5b34801561006657600080fd5b5061006f61016f565b60405161007c91906104ea565b60405180910390f35b34801561009157600080fd5b506100ac60048036038101906100a79190610536565b610193565b6040516100b9919061057c565b60405180910390f35b3480156100ce57600080fd5b506100e960048036038101906100e491906105c3565b6101ab565b005b3480156100f757600080fd5b50610112600480360381019061010d9190610536565b610292565b60405161011f919061057c565b60405180910390f35b34801561013457600080fd5b5061013d6102db565b60405161014a919061057c565b60405180910390f35b61016d600480360381019061016891906105c3565b610322565b005b60008054906101000a900473ffffffffffffffffffffffffffffffffffffffff1681565b60016020528060005260406000206000915090505481565b60008054906101000a900473ffffffffffffffffffffffffffffffffffffffff1673ffffffffffffffffffffffffffffffffffffffff163373ffffffffffffffffffffffffffffffffffffffff1614610239576040517f08c379a00000000000000000000000000000000000000000000000000000000081526004016102309061064d565b60405180910390fd5b80600160003073ffffffffffffffffffffffffffffffffffffffff1673ffffffffffffffffffffffffffffffffffffffff1681526020019081526020016000206000828254610288919061069c565b9250508190555050565b6000600160008373ffffffffffffffffffffffffffffffffffffffff1673ffffffffffffffffffffffffffffffffffffffff168152602001908152602001600020549050919050565b6000600160003073ffffffffffffffffffffffffffffffffffffffff1673ffffffffffffffffffffffffffffffffffffffff16815260200190815260200160002054905090565b671bc16d674ec800008161033691906106f2565b341015610378576040517f08c379a000000000000000000000000000000000000000000000000000000000815260040161036f906107be565b60405180910390fd5b80600160003073ffffffffffffffffffffffffffffffffffffffff1673ffffffffffffffffffffffffffffffffffffffff1681526020019081526020016000205410156103fa576040517f08c379a00000000000000000000000000000000000000000000000000000000081526004016103f190610850565b60405180910390fd5b80600160003073ffffffffffffffffffffffffffffffffffffffff1673ffffffffffffffffffffffffffffffffffffffff16815260200190815260200160002060008282546104499190610870565b9250508190555080600160003373ffffffffffffffffffffffffffffffffffffffff1673ffffffffffffffffffffffffffffffffffffffff168152602001908152602001600020600082825461049f919061069c565b9250508190555050565b600073ffffffffffffffffffffffffffffffffffffffff82169050919050565b60006104d4826104a9565b9050919050565b6104e4816104c9565b82525050565b60006020820190506104ff60008301846104db565b92915050565b600080fd5b610513816104c9565b811461051e57600080fd5b50565b6000813590506105308161050a565b92915050565b60006020828403121561054c5761054b610505565b5b600061055a84828501610521565b91505092915050565b6000819050919050565b61057681610563565b82525050565b6000602082019050610591600083018461056d565b92915050565b6105a081610563565b81146105ab57600080fd5b50565b6000813590506105bd81610597565b92915050565b6000602082840312156105d9576105d8610505565b5b60006105e7848285016105ae565b91505092915050565b600082825260208201905092915050565b7f4f6e6c79206f776e65722063616e20726573746f636b00000000000000000000600082015250565b60006106376016836105f0565b915061064282610601565b602082019050919050565b600060208201905081810360008301526106668161062a565b9050919050565b7f4e487b7100000000000000000000000000000000000000000000000000000000600052601160045260246000fd5b60006106a782610563565b91506106b283610563565b9250827fffffffffffffffffffffffffffffffffffffffffffffffffffffffffffffffff038211156106e7576106e661066d565b5b828201905092915050565b60006106fd82610563565b915061070883610563565b9250817fffffffffffffffffffffffffffffffffffffffffffffffffffffffffffffffff04831182151516156107415761074061066d565b5b828202905092915050565b7f596f75206d7573742068617665206174206c6561737420322045544820746f2060008201527f707572636861736520646f756e74000000000000000000000000000000000000602082015250565b60006107a8602e836105f0565b91506107b38261074c565b604082019050919050565b600060208201905081810360008301526107d78161079b565b9050919050565b7f4e6f7420656e6f75676820646f756e747320696e2073746f636b20746f20636f60008201527f6d706c6574652074686973207075726368617365000000000000000000000000602082015250565b600061083a6034836105f0565b9150610845826107de565b604082019050919050565b600060208201905081810360008301526108698161082d565b9050919050565b600061087b82610563565b915061088683610563565b9250828210156108995761089861066d565b5b82820390509291505056fea2646970667358221220632136531b2ebe34c9c696d118ea6442e51ba2e8a238f3b7d792939de582c23064736f6c634300080b0033",
  "immutableReferences": {},
  "source": "pragma solidity ^0.8.11;\r\n\r\ncontract VendingMachine {\r\n    address public owner;\r\n\r\n    mapping(address => uint256) public donutBalances;\r\n\r\n    constructor() {\r\n        owner = msg.sender;\r\n        donutBalances[address(this)] = 100;\r\n    }\r\n\r\n    function getVendingMachineBalance() public view returns (uint256) {\r\n        return donutBalances[address(this)];\r\n    }\r\n\r\n    function getDountsByAccount(address account) public view returns (uint256) {\r\n        return donutBalances[account];\r\n    }\r\n\r\n    function restock(uint256 amount) public {\r\n        require(msg.sender == owner, \"Only owner can restock\");\r\n        donutBalances[address(this)] += amount;\r\n    }\r\n\r\n    function purchase(uint256 amount) public payable {\r\n        require(\r\n            msg.value >= amount * 2 ether,\r\n            \"You must have at least 2 ETH to purchase dount\"\r\n        );\r\n        require(\r\n            donutBalances[address(this)] >= amount,\r\n            \"Not enough dounts in stock to complete this purchase\"\r\n        );\r\n        donutBalances[address(this)] -= amount;\r\n        donutBalances[msg.sender] += amount;\r\n    }\r\n}\r\n",
  "sourcePath": "/mnt/c/Users/123/Desktop/vender-mechine/vending-machine/contracts/VendingMachine.sol",
  "compiler": {
    "name": "solc",
    "version": "0.8.11+commit.d7f03943.Emscripten.clang"
  },
  "schemaVersion": "3.4.9",
  "updatedAt": "2022-08-13T02:28:46.596Z",
  "devdoc": {
    "kind": "dev",
    "methods": {},
    "version": 1
  },
  "userdoc": {
    "kind": "user",
    "methods": {},
    "version": 1
  }
}